:4000000000400020A50000009D0000009D00000080B51448144B21E05C689968DD688C420CD0002205E0A6180832D6E9008941E902898C460831AA42F5D101E004EB050C42
:400040001C696146002204E008320026002741E902670831A242F7D1143301380028DBD10AF060FB01000000A0B100004CF27013C1F6FF731A780AB901201870704700BFF6
:400080004CF20810C1F6FF7008B503682BB140F20003C0F2000303B1984708BD80B400AFFEE700BF054B1C7844F001041C70044B1A78D2B2034B1A70FFF7AAFFE846004004
:4000C000FA460040BC76004080B582B000AF4EF60C53CEF2000340F20042C0F2FA521A604EF61453CEF200034EF61452CEF20002126842F400721A604FF000037B6019E01A
:4001000079687B68032B07D87A6840F20003C0F2000353F8223003E040F29D03C0F200034CF20002C1F6FF7242F821307B6803F101037B607B682F2BE2D947F2BC63C4F26C
:4001400000031B78DAB24CF67533C1F6FF731A704EF60853CEF200034CF20002C1F6FF721A6009F0CDFE03F06FF84CF20013C1F6FF734FF000021A6007F10807BD4680BDE2
:4001800080B500AF4CF27113C1F6FF731B78002B30D000F033F94CF27813C1F6FF731B78002B0CD04CF27813C1F6FF731B7803F1FF33DAB24CF27813C1F6FF731A704CF219
:4001C0008F13C1F6FF731B78002B0CD04CF28F13C1F6FF731B7803F1FF33DAB24CF28F13C1F6FF731A704CF27113C1F6FF734FF000021A7080BD00BF90B583B000AF4CF2A2
:400200007413C1F6FF731B78002B06D14CF27413C1F6FF734FF001021A704CF27413C1F6FF731B78012B38D14FF00003FB804CF27413C1F6FF734FF002021A704FF000034F
:40024000FB800BE0FA884CF2AC23C1F6FF734FF000019954FB8803F10103FB80FA8840F21F139A42EED94FF00003FB800BE0FA884CF2EC13C1F6FF734FF000019954FB8874
:4002800003F10103FB80FB88BF2BF0D94CF2E813C1F6FF734FF0C0021A8005F0EFFC0346002B00F0A7804FF0010005F009FD03461A464CF20C13C1F6FF731A704CF20C13DC
:4002C000C1F6FF731B78022B0DD146F27543C4F2000346F27542C4F200021278D2B202F0FD021A7014E04CF20C13C1F6FF731B78012B0DD146F27543C4F2000346F27542AF
:40030000C4F200021278D2B242F00202D2B21A704CF20C13C1F6FF731B78002B17D046F20E03C4F200031B78DBB203F00F03012B0DD14FF001004CF2AC21C1F6FF714FF4A2
:40034000907205F0D5FE4FF0010005F057FF4CF20C13C1F6FF735C784FF0020005F0B0FC03469C423CD04FF0020005F0A9FC03461A464CF20C13C1F6FF735A704CF20C1388
:40038000C1F6FF735B78002B2AD046F21E03C4F200031B78DBB203F00F03012B20D14CF2E813C1F6FF734FF0C0021A804CF2E813C1F6FF731B884FF002004CF2EC11C1F693
:4003C000FF711A4605F0B0FD4CF2E813C1F6FF731B884FF002004FF000011A4605F0A4FD4FF004004CF27611C1F6FF714FF0010205F09AFD07F10C07BD4690BD80B582B050
:4004000000AF4FF00403FB714CF2DC13C1F6FF731B78002B78D005F007FC0346002B07D04CF27213C1F6FF734FF000021A700CE04CF27213C1F6FF731B7803F10103DAB216
:400440004CF27213C1F6FF731A704CF27213C1F6FF731B78052B58D905F004FC0346002B4AD04CF21613C1F6FF731B78002B08D14CF21613C1F6FF734FF001021A7000F030
:400480002FFF08F0A5FE01F025FA10E04FF0640003F0EEFE05F02AF903466FEA0303DBB2184605F001F9FB7903F1FF33FB71FB79002BEBD107F05CF904F02CF84FF0000053
:4004C0004FF0400104F0CAFB04F0CCF907F020FA08F094FE01F01EFA05F0C4FB0346002B0AD04CF6DC33C1F6FF734FF001021A704FF0000007F0EAFE4CF27213C1F6FF7314
:400500004FF000021A7000E000BF07F10807BD4680BD00BF80B500AF4CF2DC13C1F6FF731B78002B13D14FF000004FF0020105F0EFF84CF27413C1F6FF734FF001021A7058
:400540004CF27313C1F6FF734FF001021A7080BD80B500AF62B601F00BFF41F6E910C0F2000001F0B7FF03F0ABFD4FF003004FF0030103F00BFF80BD80B500AF00F004F8DB
:4005800001F060F880BD00BF80B500AF00F02CF805F068FB0346002B24D04FF0040005F0A1FB0346012B1DD14CF27713C1F6FF731A784CF27613C1F6FF731B789A4211D044
:4005C0004CF27613C1F6FF731A784CF27713C1F6FF731A704FF004004FF000014FF0010205F0A2FC80BD00BF80B500AF01F0AEFE0346002B3BD14CF27513C1F6FF731B7827
:4006000003F00403002B14D14CF27513C1F6FF731B7843F00403DAB24CF27513C1F6FF731A704CF27813C1F6FF734FF004021A7044E04CF27513C1F6FF731B7803F004038E
:40064000002B38D04CF27813C1F6FF731B78002B33D14CF27613C1F6FF731B7843F00103DAB24CF27613C1F6FF731A7026E04CF27513C1F6FF731B7803F00403002B1DD039
:400680004CF27513C1F6FF731B781A4602F0FB024CF27513C1F6FF731A704CF27613C1F6FF731B781A4602F0FE024CF27613C1F6FF731A7002E000BF00E000BF80BD00BF65
:4006C00090B583B000AF4FF0000003F017FC43F20060C0F26E1003F003FE4FF0640003F0EBFD03F0FDF844F22123C4F200034FF000021A7001F02CFB4CF2CC33C1F6FF73F3
:400700004FF001021A704FF0020003F0FBF84FF001004FF001014FF400524FF4804301F067FC03461A464CF2DD33C1F6FF731A704FF002004FF001014FF480424FF400538F
:4007400002F0C4FA03461A464CF2E833C1F6FF731A704FF00003FB7117E0FC7902F072FF03461A464CF2E033C1F6FF731A55FC7902F068FF03461A464CF2D433C1F6FF7320
:400780001A55FB7903F10103FB71FB79072BE4D94FF00003FB7179E0FA794CF2E033C1F6FF73995CFB7903F101024FEAE2734FEA53731A4402F00702C3EB02031A464CF204
:4007C000E033C1F6FF739B5C08464FF090011A464FF0050302F0A8FFFA794CF2D433C1F6FF73995CFB7903F101024FEAE2734FEA53731A4402F00702C3EB02031A464CF2F0
:40080000D433C1F6FF739B5C08464FF060011A464FF0060302F088FFFA794CF2E033C1F6FF739A5CFB7919464FEAC1010B444FEA031399B24CF2F033C1F6FF739BB20B44C2
:400840009BB21046194646F2414202F0A7FFFA794CF2D433C1F6FF739A5CFB7919464FEA41010B444FEA431399B24CF67403C1F6FF739BB20B449BB210464CF2A8711A46FD
:4008800002F08CFFFB7903F10103FB71FB79072B82D94FF001004FF001014FF480424FF4804301F08BFE03461A464CF2DE33C1F6FF731A7002F0C6FE03461A464CF2CD3394
:4008C000C1F6FF731A704CF2CD33C1F6FF731A784CF2CD33C1F6FF731B7810464FF001011A464FF0000302F01FFF4CF2CD33C1F6FF731B78184646F2514146F2475202F024
:400900004DFF4CF2DE33C1F6FF731A784CF2CD33C1F6FF731B781046194602F0EDFD4FF001004FF000014FF400524FF4005301F0CBFC03461A464CF67433C1F6FF731A702E
:4009400002F080FE03461A464CF2D033C1F6FF731A7002F077FE03461A464CF2D033C1F6FF735A704FF001004FF000014FF400524FF4005301F046FC03461A464CF2DC3352
:40098000C1F6FF731A7002F05DFE03461A464CF2EC33C1F6FF731A7002F054FE03461A464CF2EC33C1F6FF735A7041F61920C0F2000001F05FFB41F65D10C0F2000002F08C
:4009C000C7F941F63D10C0F2000001F0C7FB46F29753C4F2000346F29752C4F200021278D2B242F00C02D2B21A7001F099FE08F06FFB00F08DFE41F6A120C0F2000008F037
:400A000013FB4CF2B473C4F200034FF00C021A704CF2B073C4F200034FF055021A7002F0EBF807F10C07BD4690BD00BF80B582B000AF4CF29013C1F6FF731B78012B40F07B
:400A40009C814CF27A13C1F6FF731B78002B14D04CF28213C1F6FF734FF000021A804CF27E13C1F6FF734FF000021A804CF27A13C1F6FF734FF000021A704CF67433C1F6BA
:400A8000FF731B78184602F04FFC4FF0010005F043F90346BB8001F035FB4CF27E13C1F6FF731A88BB8813449AB24CF27E13C1F6FF731A8001F01AFB4CF28213C1F6FF736C
:400AC0001B881A46BB881344B3F5906F76D94CF28213C1F6FF731B88C3F59063FB804CF2D033C1F6FF7319784CF2D033C1F6FF735B78FA88084611461A464FF0230302F088
:400B000013FE4CF2D033C1F6FF735A78B988FB88C3EB01039BB2104619464FF0FE024FF0030302F001FE4CF2D033C1F6FF7319784CF2AC23C1F6FF739AB24CF28213C1F674
:400B4000FF7318884CF2F033C1F6FF739BB203449BB2084611461A4602F020FE4CF2D033C1F6FF7359784CF2AC23C1F6FF739AB2FB8813449AB24CF2F033C1F6FF739BB229
:400B8000084611461A4602F009FE4CF67433C1F6FF731A784CF2D033C1F6FF731B781046194602F0A9FCBA88FB88C3EB02039AB24CF28213C1F6FF731A8052E04CF2D0337D
:400BC000C1F6FF731A78BB88104619464FF0FE024FF0030302F0A8FD4CF2D033C1F6FF7319784CF2AC23C1F6FF739AB24CF28213C1F6FF7318884CF2F033C1F6FF739BB237
:400C000003449BB2084611461A4602F0C7FD4CF67433C1F6FF731A784CF2D033C1F6FF731B781046194602F067FC4CF28213C1F6FF731A88BB8813449AB24CF28213C1F6AC
:400C4000FF731A804CF28213C1F6FF731B88B3F5906F06D14CF28213C1F6FF734FF000021A804CF67433C1F6FF731B7818464FF0010102F021FB4CF67433C1F6FF731B787D
:400C800018464FF0010102F059FC4CF27B13C1F6FF731B78002B70D14CF27E13C1F6FF731A8840F23F239A4267D94CF27B13C1F6FF734FF001021A7001F020F84CF2DD33F8
:400CC000C1F6FF731B784FEA031247F21003C4F2000313441B7ADBB203F00203002BEDD14CF2DD33C1F6FF731B7818464FF0040102F024FC4CF2DD33C1F6FF731B78184665
:400D00004FF0010102F0D8FA4CF2DD33C1F6FF731B784FEA031247F21003C4F2000313441B78DBB203F00103DBB2002BECD14CF2DD33C1F6FF731A784CF2E033C1F6FF73EB
:400D40001B781046194602F0D7FB4CF2DD33C1F6FF731B7818464FF0010102F0ADFA01F06FFC4CF2DE33C1F6FF731B7818464FF0010102F0A1FA00F059FF07F10807BD4640
:400D800080BD00BF80B582B000AF4FF0C003FB804CF29013C1F6FF731B78012B40F0A5814CF28413C1F6FF731B78002B1BD04CF28C13C1F6FF734FF000021A804CF2861326
:400DC000C1F6FF734FF000021A804CF28413C1F6FF734FF000021A704CF29113C1F6FF734FF000021A704CF2DC33C1F6FF731B78184602F099FA4CF2CC33C1F6FF731B786B
:400E0000012B07D0022B28D0002B29D14FF0C003FB8025E04CF29113C1F6FF731B78092B0AD14FF0B403FB804CF29113C1F6FF734FF000021A7013E04FF0B003FB804CF251
:400E40009113C1F6FF731B7803F10103DAB24CF29113C1F6FF731A7002E04FF08003FB804CF2E813C1F6FF73FA881A8001F0B8FF4CF28613C1F6FF731A88FB8813449AB2EC
:400E80004CF28613C1F6FF731A8001F09DFF4CF28C13C1F6FF731B881A46FB881344B3F5407F76D94CF28C13C1F6FF731B88C3F54073BB804CF2EC33C1F6FF7319784CF2CE
:400EC000EC33C1F6FF735B78BA88084611461A464FF0230302F028FC4CF2EC33C1F6FF735A78F988BB88C3EB01039BB2104619464FF0FE024FF0070302F016FC4CF2EC335C
:400F0000C1F6FF7319784CF28C13C1F6FF731A884CF67403C1F6FF739BB213449AB24CF2EC13C1F6FF739BB2084611461A4602F035FC4CF2EC33C1F6FF7359784CF6740392
:400F4000C1F6FF739AB24CF2EC13C1F6FF7398B2BB8803449BB2084611461A4602F01EFC4CF2DC33C1F6FF731A784CF2EC33C1F6FF731B781046194602F0BEFAFA88BB881F
:400F8000C3EB02039AB24CF28C13C1F6FF731A8052E04CF2EC33C1F6FF731A78FB88104619464FF0FE024FF0070302F0BDFB4CF2EC33C1F6FF7319784CF28C13C1F6FF73C1
:400FC0001A884CF67403C1F6FF739BB213449AB24CF2EC13C1F6FF739BB2084611461A4602F0DCFB4CF2DC33C1F6FF731A784CF2EC33C1F6FF731B781046194602F07CFABE
:401000004CF28C13C1F6FF731A88FB8813449AB24CF28C13C1F6FF731A804CF28C13C1F6FF731B88B3F5407F06D14CF28C13C1F6FF734FF000021A804CF2DC33C1F6FF7304
:401040001B7818464FF0010102F036F94CF2DC33C1F6FF731B7818464FF0010102F06EFA4CF28513C1F6FF731B78002B3DD14CF28613C1F6FF731A8840F27F139A4234D901
:401080004CF28513C1F6FF734FF001021A704CF2E833C1F6FF731B7818464FF0040102F04DFA4CF2E833C1F6FF731B7818464FF0010102F001F94CF2E833C1F6FF731A78C1
:4010C0004CF2D433C1F6FF731B781046194602F013FA4CF2E833C1F6FF731B7818464FF0010102F0E9F801F0F9FA07F10807BD4680BD00BF80B500AF4CF27B13C1F6FF73F1
:401100001B78002B33D000F0BDFD4FF0140003F0D3F801F0C3FA4CF2DD33C1F6FF731B78184602F001F94CF2DE33C1F6FF731B78184602F0F9F84CF27A13C1F6FF734FF0B2
:4011400001021A704CF27C13C1F6FF734FF000021A804CF28013C1F6FF734FF000021A804CF27B13C1F6FF734FF000021A7080BD80B500AF4CF28513C1F6FF731B78002B9E
:401180002ED04CF2E833C1F6FF731B7818464FF0040102F0D3F94CF28413C1F6FF734FF001021A704CF28A13C1F6FF734FF001021A704CF21413C1F6FF734FF440721A8005
:4011C0004CF28813C1F6FF734FF000021A804CF28513C1F6FF734FF000021A7001F0A0FA80BD00BF80B582B000AF0346FB71FFF781FFFFF7BDFF4FF0000002F07FFE43F2EB
:401200000060C0F26E1003F06BF84CF2CC33C1F6FF73FA791A70FB79184600F0C9FDFB79012B12D0022B02D0002B07D013E04FF002004FF0000101F093FA0CE04FF001003C
:401240004FF0000101F08CFA05E04FF001004FF0000101F085FA4FF0010002F04FFE4AF24050C0F2AE2003F03BF84CF29013C1F6FF734FF001021A7000F05AFB07F10807CF
:40128000BD4680BD80B500AF4FF00C0000F0FCFF4FF00C0000F042FF4FF00C0000F028FC4FF00C0001F06AF945F21E03C4F200031B78DBB203F01003002B0DD145F21E03C2
:4012C000C4F2000345F21E02C4F200021278D2B242F00102D2B21A7000F05EFC80BD00BF80B500AF4FF0000002F008FE43F20060C0F26E1002F0F4FF4FF0640002F0DCFF5A
:4013000002F0EEFA00F05EFC4FF0020000F0BCFF4FF0020000F002FF4FF0020000F0E8FB4FF0020001F02AF94CF29213C1F6FF734FF000021A704CF29013C1F6FF734FF0E2
:4013400000021A704CF21713C1F6FF734FF0FF321A7080BD80B582B000AF4CF6DE33C1F6FF731B78DBB2002B40F0CA804CF6BF33C1F6FF731B78DBB2002B00F0C1804CF2AB
:401380008513C1F6FF731B78002B07D14CF6BF33C1F6FF731B78DBB2012B10D04CF27B13C1F6FF731B78002B40F0A3804CF6BF33C1F6FF731B78DBB2022B40F09A804FF014
:4013C0000003FB714CF6BF33C1F6FF731B78DBB219464CF6A432C1F6FF720B464FEA43030B44134403F102031B78DBB24FEA03404CF6BF33C1F6FF731B78DBB219464CF639
:40140000A432C1F6FF720B464FEA43030B44134403F101031B78DBB24FEA032340EA03004CF6BF33C1F6FF731B78DBB219464CF6A432C1F6FF720B464FEA43030B44134402
:401440001B78DBB240EA03033B604CF6BF33C1F6FF734FF000021A703A684BF680339A4203D14FF00003FB710FE03A684AF644439A4203D14FF00103FB7106E03B68B3F57D
:40148000FA4F02D14FF00203FB714CF21713C1F6FF731B78FA799A4223D04CF21713C1F6FF73FA791A704CF21613C1F6FF731B78002B07D04CF28E13C1F6FF734FF00102FD
:4014C0001A700EE04CF21713C1F6FF731B781846FFF788FE4CF28E13C1F6FF734FF000021A704CF28F13C1F6FF734FF000021A7006E04CF6BF33C1F6FF734FF000021A70C1
:4015000007F10807BD4680BD80B500AF4CF21613C1F6FF731B78002B48D14CF21613C1F6FF731B78002B41D14CF6C833C1F6FF735B78DBB2002B39D14CF6C833C1F6FF7358
:401540009B78DBB2002B31D14CF28F13C1F6FF731B78002B06D14CF28F13C1F6FF734FF064021A704CF28F13C1F6FF731B78012B1CD14CF21613C1F6FF734FF001021A70B7
:40158000FFF7AEFE45F21E03C4F2000345F21E02C4F200021278D2B202F0FE021A704CF29213C1F6FF734FF000021A704CF21613C1F6FF731B78012B43D14CF21613C1F687
:4015C000FF731B78012B3CD14CF6C833C1F6FF735B78DBB2002B07D14CF6C833C1F6FF739B78DBB2002B2CD04CF21613C1F6FF734FF000021A70FFF745FE45F21E03C4F215
:40160000000345F21E02C4F200021278D2B242F00102D2B21A704CF28E13C1F6FF731B78002B0ED04CF21713C1F6FF731B781846FFF7D8FD4CF28E13C1F6FF734FF000020D
:401640001A7080BD80B400AF4CF28513C1F6FF731B78002B06D14CF27B13C1F6FF731B78002B0DD045F21903C4F2000345F21902C4F200021278D2B202F0FE021A700DE00F
:4016800045F21903C4F2000345F21902C4F200021278D2B242F00102D2B21A70BD4680BC704700BF80B483B000AF4CF28A13C1F6FF731B78002B26D04FF00003FB8016E08D
:4016C000FB88BF2B07D8FA884CF2EC13C1F6FF734FF000019954FA884CF67403C1F6FF734FF000019954FB8803F10103FB80FA8840F2FF239A42E3D94CF28A13C1F6FF7390
:401700004FF000021A7007F10C07BD4680BC704780B582B000AF4FF002004FF001014FF480424FF4804301F029F90346BB7101F089FF03463B7101F085FF03467B713A79E7
:401740007B7910464FF002011A464FF0200301F0EBFF7A793B7910464FF002011A464FF0000301F0E1FF3B79184646F69C014CF2A27202F013F87B79184646F698014CF2EF
:40178000A07202F00BF83B79BA791046194601F0B3FEBB7918464FF0010101F08DFD4FF002004FF001014FF480424FF4804301F027F90346FB7101F045FF03463B7001F029
:4017C00041FF03467B703A787B7810464FF002011A464FF0200301F0A7FF7A783B7810464FF002011A464FF0000301F09DFF3B78184646F694214CF2A67201F0CFFF7B7869
:40180000184646F690214CF2A47201F0C7FF3B78FA791046194601F06FFEFB7918464FF0010101F049FD07F10807BD4680BD00BF80B400AF4CF28073C4F200031B78DAB2DD
:401840004CF21013C1F6FF735A704CF28473C4F200031B78DAB24CF21013C1F6FF739A70BD4680BC704700BF80B400AF4CF28073C4F200034CF21012C1F6FF7252781A7015
:401880004CF28473C4F200034CF21012C1F6FF7292781A7044F2A633C4F2000344F2A632C4F200021278D2B242F01002D2B21A704CF28C73C4F200034FF03F021A704CF2F2
:4018C0008C73C4F200034FF000021A70BD4680BC704700BF80B500AF44F2A633C4F200031B78DBB203F01003002B07D04CF21013C1F6FF734FF001021A7006E04CF210133F
:40190000C1F6FF734FF000021A7001F08BF9FFF78FFF80BD80B500AFFFF7A6FF4CF21013C1F6FF731B78012B01D101F035F980BD80B400AFBD4680BC704700BF80B500AF0B
:401940004CF2E813C1F6FF731B884FF002004FF000011A4604F0E8FA80BD00BF80B582B000AF4CF28613C1F6FF731A884CF28813C1F6FF731B88C3EB0203FB804CF21413BF
:40198000C1F6FF731A88FB88C3EB02039AB24CF21413C1F6FF731A804CF28613C1F6FF731A884CF28813C1F6FF731A804CF21413C1F6FF731A8840F2FF239A4202D9FFF743
:4019C000D7FB0CE04CF21413C1F6FF731B8803F160039AB24CF21413C1F6FF731A8007F10807BD4680BD00BF80B400AF44F29033C4F200031B78DAB24CF27113C1F6FF7388
:401A00001A704CF27113C1F6FF734FF001021A70BD4680BC704700BF80B582B000AF4CF27E13C1F6FF731A884CF28013C1F6FF731B88C3EB0203FB804CF27C13C1F6FF733F
:401A40001A88FB8813449AB24CF27C13C1F6FF731A804CF27E13C1F6FF731A884CF28013C1F6FF731A804CF27C13C1F6FF731B88B3F5907F02D8FFF73DFB0CE04CF27C13CF
:401A8000C1F6FF731B88A3F190039AB24CF27C13C1F6FF731A8007F10807BD4680BD00BF80B582B000AF07F0B7FB0346FB7107F10807BD4680BD00BF80B500AFFEF700FE00
:401AC000FEF746FD04F0CEF80346002B05D0FEF793FBFFF719FDFFF73DFCFEF74DFDFEF719FDFEF74DFB02F0B3FCFFF7DBFDE9E780B483B000AF0346FB7145F21D03C4F24F
:401B0000000345F21D02C4F200021278D2B2D1B201F0F101FA79D2B202F00E0241EA0202D2B2D2B21A7007F10C07BD4680BC704780B582B000AF01F07FFB0346FB7146F2F7
:401B40009F43C4F2000346F29F42C4F200021278D2B242F02002D2B21A70FB79184601F06FFB46F27743C4F2000346F27742C4F200021278D2B242F00402D2B21A7007F1BC
:401B80000807BD4680BD00BF80B500AF4FF0000000F0A2F880BD00BF80B500AF4CF29313C1F6FF731B78002B08D1FFF7EDFF4CF29313C1F6FF734FF001021A70FFF7B8FF7E
:401BC00080BD00BF80B582B000AF46F27743C4F2000346F27742C4F200021278D2B202F0FB021A7001F028FB0346FB7146F29F43C4F2000346F29F42C4F200021278D2B27D
:401C000002F0DF021A70FB79184601F019FB46F27F43C4F200034FF000021A7000F032F800F06CF807F10807BD4680BD80B582B000AF46F27743C4F2000346F27742C4F2D5
:401C400000021278D2B242F00102D2B21A7001F0F3FA0346FB7146F29753C4F2000346F29752C4F200021278D2B242F01002D2B21A70FB79184601F0E3FA07F10807BD46C0
:401C800080BD00BF80B582B000AF46F27743C4F2000346F27742C4F200021278D2B202F0FE021A7001F0C8FA0346FB7146F29753C4F2000346F29752C4F200021278D2B20A
:401CC00002F0EF021A70FB79184601F0B9FA07F10807BD4680BD00BF80B483B000AF0346FB7146F28753C4F20003FA7902F007021A7007F10C07BD4680BC704780B582B005
:401D000000AF01F099FA0346FB7146F29753C4F2000346F29752C4F200021278D2B242F00102D2B21A7046F29753C4F2000346F29752C4F200021278D2B202F0FE021A7078
:401D4000FB79184601F07CFA07F10807BD4680BD80B400AF46F22043C4F200034FF009021A7046F23043C4F200034FF015021A7046F22643C4F200034FF076021A7046F2C1
:401D80002743C4F200034FF05D021A7046F22653C4F200034FF035021A7046F23653C4F200034FF00F021A70BD4680BC704700BF80B582B000AF0346FB71FB79072B00F202
:401DC0008C804FF0010202FA03F303F09D02002A04D103F06203002B40D17EE044F22223C4F200034FF024021A8046F21453C4F200034FF040021A7046F21553C4F2000331
:401E00004FF060021A7046F22453C4F200036FF03F021A7046F22553C4F200036FF072021A7046F23453C4F200034FF000021A7046F23553C4F200036FF023021A7046F21D
:401E40003643C4F200034FF040021A7046F23743C4F200034FF060021A703EE044F22223C4F200034FF021021A8046F21453C4F200036FF03F021A7046F21553C4F2000366
:401E80004FF054021A7046F22453C4F200036FF07F021A7046F22553C4F200036FF066021A7046F23453C4F200036FF07F021A7046F23553C4F200036FF023021A7046F2D6
:401EC0003643C4F200036FF03F021A7046F23743C4F200034FF054021A704FF0000001F091FC4FF0FA0002F0E7F9FB79072B7AD801A252F823F000BF671F0000B51F000023
:401F00004D1F0000331F0000191F0000811F00009B1F0000CF1F00004FF017004FF0000100F06AFF4FF02F004FF0000101F070F859E04FF00B004FF0000100F05DFF4FF01F
:401F400017004FF0000101F063F84CE04FF003004FF0010100F050FF4FF008004FF0010101F056F83FE04FF002004FF0010100F043FF4FF005004FF0010101F049F832E06D
:401F80004FF00F004FF0000100F036FF4FF01F004FF0000101F03CF825E04FF007004FF0000100F029FF4FF00F004FF0000101F02FF818E04FF002004FF0010100F01CFFDD
:401FC0004FF005004FF0010101F022F80BE04FF001004FF0000100F00FFF4FF003004FF0000101F015F807F10807BD4680BD00BF80B584B002AFF871B971BA807B804CF242
:402000001813C1F6FF734FF002021A704CF21813C1F6FF731978FA79BB794FF0000000904FF000000190084611461A464FF0020301F0B8FA4CF21813C1F6FF731978BA88C5
:402040007B88084611461A4601F012FA4CF21813C1F6FF731B7818464FF0010101F0D0F94CF21813C1F6FF731B78184607F10807BD4680BD80B582B000AF786000F042F8FB
:40208000786800F00BF84FF0040000F01BF800F02DF807F10807BD4680BD00BF80B485B000AF78604EF60853CEF200031B68FB60FB6803F160037A681A6007F11407BD4690
:4020C00080BC704780B483B000AF0346FB714EF20843CEF20003FA794FEA4212D2B21A7007F10C07BD4680BC704700BF80B400AF4EF20013CEF200034FF480721A60BD465B
:4021000080BC704780B400AF4EF28013CEF200034FF480721A60BD4680BC704780B483B000AF0346FB7145F21F03C4F2000345F21F02C4F200021278D2B2D1B201F0F1012D
:40214000FA79D2B202F00E0241EA0202D2B2D2B21A7007F10C07BD4680BC704780B582B000AF786000F042F8786800F00BF84FF0040000F01BF800F02DF807F10807BD4654
:4021800080BD00BF80B485B000AF78604EF60853CEF200031B68FB60FB6803F154037A681A6007F11407BD4680BC704780B483B000AF0346FB714EF20543CEF20003FA7957
:4021C0004FEA4212D2B21A7007F10C07BD4680BC704700BF80B400AF4EF20013CEF200034FF020021A60BD4680BC704780B400AF4EF28013CEF200034FF020021A60BD4663
:4022000080BC704780B584B002AFF871B971BA807B804CF21913C1F6FF734FF004021A704CF21913C1F6FF731978FA79BB794FF0000000904FF000000190084611461A46F8
:402240004FF0040301F0AEF94CF21913C1F6FF731978BA887B88084611461A4601F008F94CF21913C1F6FF731B7818464FF0030101F0C6F84CF21913C1F6FF731B78184626
:4022800007F10807BD4680BD80B483B000AF0346FB7145F26703C4F2000345F26702C4F200021278D2B2D1B201F0F101FA79D2B202F00E0241EA0202D2B2D2B21A7007F134
:4022C0000C07BD4680BC704780B584B002AFF871B971BA807B804CF21A13C1F6FF734FF00A021A704CF21A13C1F6FF731978FA79BB794FF0000000904FF0000001900846D1
:4023000011461A464FF0000301F04CF94CF21A13C1F6FF731978BA887B88084611461A4601F0A6F84CF21A13C1F6FF731B7818464FF0030101F064F84CF21A13C1F6FF73C7
:402340001B78184607F10807BD4680BD80B400AF45F22113C4F200031B78DBB203F010034FEA1313DBB21846BD4680BC704700BF80B500AF4CF29413C1F6FF731B78002B49
:4023800008D100F00BF84CF29413C1F6FF734FF001021A7000F00CF880BD00BF80B500AF4FF0030000F06EF800F04EF880BD00BF80B582B000AF44F20033C4F200031B780E
:4023C000DBB203F00203002B24D100F035FF0346FB7144F20033C4F2000344F20032C4F200021278D2B242F00202D2B21A7044F28233C4F2000344F28232C4F200021278FB
:40240000D2B242F00402D2B21A70FB79184600F017FF15E000F010FF0346FB7144F28233C4F2000344F28232C4F200021278D2B242F00402D2B21A70FB79184600F000FFF6
:4024400007F10807BD4680BD80B582B000AF00F0F3FE0346FB7144F28233C4F2000344F28232C4F200021278D2B242F00802D2B21A70FB79184600F0E3FE07F10807BD461E
:4024800080BD00BF80B483B000AF0346FB7144F28233C4F200031B78DBB203F00403002B13D144F28133C4F2000344F28132C4F200021278D2B2114601F0F001FA7902F098
:4024C0000F0241EA0202D2B21A7007F10C07BD4680BC704780B582B000AF786000F042F8786800F00BF84FF0070000F01BF800F02DF807F10807BD4680BD00BF80B485B0D5
:4025000000AF78604EF60853CEF200031B68FB60FB6803F15C037A681A6007F11407BD4680BC704780B483B000AF0346FB714EF20743CEF20003FA794FEA4212D2B21A7093
:4025400007F10C07BD4680BC704700BF80B400AF4EF20013CEF200034FF080021A60BD4680BC704780B400AF4EF28013CEF200034FF080021A60BD4680BC704780B483B060
:4025800000AF0346FB7145F20103C4F2000345F20102C4F200021278D2B2D1B201F0F101FA79D2B202F00E0241EA0202D2B2D2B21A7007F10C07BD4680BC704780B584B039
:4025C00002AFF871B971BA807B804CF21B13C1F6FF734FF009021A704CF21B13C1F6FF731978FA79BB794FF0000000904FF000000190084611461A464FF0000300F0D2FF85
:402600004CF21B13C1F6FF731978BA887B88084611461A4600F02CFF4CF21B13C1F6FF731B7818464FF0010100F0EAFE4CF21B13C1F6FF731B78184607F10807BD4680BDA3
:4026400080B400AF46F29143C4F2000346F29142C4F200021278D2B202F0FC021A7046F29143C4F2000346F29142C4F200021278D2B242F00C02D2B21A7046F27543C4F2DD
:40268000000346F27542C4F200021278D2B242F00102D2B21A70BD4680BC704780B400AF46F29143C4F2000346F29142C4F200021278D2B242F00302D2B21A7046F275437B
:4026C000C4F2000346F27542C4F200021278D2B202F0FE021A70BD4680BC704780B400AF44F2A233C4F2000344F2A232C4F200021278D2B242F00102D2B21A7044F2B23325
:40270000C4F2000344F2B232C4F200021278D2B242F00102D2B21A70BD4680BC704700BF80B400AF44F2A233C4F2000344F2A232C4F200021278D2B202F0FE021A7044F2DF
:40274000B233C4F2000344F2B232C4F200021278D2B202F0FE021A70BD4680BC704700BF80B584B000AF02460B46FA807B7100F0F7F803467B7300F0E7F80346FB81FA8867
:40278000FB899A4200F0DB8044F2A233C4F200031B78DBB203F001033B737B7B002B31D1FB89002B02D0FB88002B2BD1FB89002B13D144F28003C4F20003FA881A8044F240
:4027C0008203C4F2000344F28202C4F200021278D2B202F0BF021A70B1E044F28203C4F2000344F28202C4F200021278D2B242F04002D2B21A7044F28003C4F20003FA88E3
:402800001A809CE03B7B002B5AD044F20103C4F200034FF000021A7044F21003C4F200034FF001021A7044F21403C4F200034FF000021A7044F20803C4F2000344F20802E0
:40284000C4F200021278D2B202F07F021A7044F28203C4F200031B78DBB203F00803002B02D0FB88002B2BD144F20203C4F20003FA891A8044F20103C4F200034FF0070210
:402880001A7044F20103C4F200031B78DBB203F00103DBB2002BF4D144F2A233C4F2000344F2A232C4F200021278D2B202F0FE021A7044F20103C4F200034FF000021A7039
:4028C00044F2A233C4F200031B78DBB203F00103DBB2002B1ED044F20203C4F20003FA881A8044F20103C4F200037A79002A02D04FF0030201E04FF001021A7044F201033A
:40290000C4F200031B78DBB203F00103DBB2002BF4D114E044F28003C4F20003FA881A8044F2A233C4F2000344F2A232C4F200021278D1B23A7B41EA0202D2B21A7007F14B
:402940001007BD4680BD00BF80B400AF44F28003C4F200031B889BB21846BD4680BC704780B400AF44F28203C4F200031B78DBB203F007031846BD4680BC704780B584B077
:4029800002AFF871B971BA807B804CF21C13C1F6FF734FF006021A704CF21C13C1F6FF731978FA79BB794FF0000000904FF000000190084611461A464FF0000300F0F2FDA4
:4029C0004CF21C13C1F6FF731978BA887B88084611461A4600F04CFD4CF21C13C1F6FF731B7818464FF0010100F00AFD4CF21C13C1F6FF731B78184607F10807BD4680BDA0
:402A000080B584B002AFF871B971BA807B804CF21D13C1F6FF734FF007021A704CF21D13C1F6FF731978FA79BB794FF0000000904FF000000190084611461A464FF0000396
:402A400000F0B0FD4CF21D13C1F6FF731978BA887B88084611461A4600F00AFD4CF21D13C1F6FF731B7818464FF0010100F0C8FC4CF21D13C1F6FF731B78184607F1080744
:402A8000BD4680BD80B500AF44F2A633C4F2000344F2A632C4F200021278D2B242F01002D2B21A704CF28073C4F200034CF28072C4F200021278D2B202F0FE021A704CF26A
:402AC0008873C4F200034FF03F021A704CF28C73C4F200034FF03F021A704CF20040C4F200004AF2A871C0F200014FF4807207F0E7FC4CF20050C4F200004AF2A871C0F282
:402B000000014FF4807207F0DBFC4CF20060C4F200004AF6E841C0F200014FF4807207F0CFFC4CF20000C4F200004AF6A801C0F200014FF4007207F0C3FC4CF20020C4F21B
:402B400000004AF6A821C0F200014FF4007207F0B7FC4CF20070C4F200004AF6A841C0F200014FF0400207F0ABFC4CF28C73C4F200034FF000021A704FF0000000F07EF875
:402B80004FF0050000F08EF84CF28473C4F200036FF007021A7080BD80B400AF44F2A633C4F2000344F2A632C4F200021278D2B242F01002D2B21A7044F2B633C4F2000395
:402BC00044F2B632C4F200021278D2B242F01002D2B21A704CF28073C4F200034CF28072C4F200021278D2B242F00102D2B21A70BD4680BC704700BF80B500AF4CF29513FD
:402C0000C1F6FF731B78002B08D1FFF73BFF4CF29513C1F6FF734FF001021A70FFF7BCFF80BD00BF80B400AF4CF28073C4F200034CF28072C4F200021278D2B202F0FE0267
:402C40001A7044F2A633C4F2000344F2A632C4F200021278D2B202F0EF021A7044F2B633C4F2000344F2B632C4F200021278D2B202F0EF021A70BD4680BC704780B483B03B
:402C800000AF0346FB71FB7903F01F03FB714CF29873C4F20003FA791A7007F10C07BD4680BC704780B483B000AF0346FB71FB7903F00F03FB714CF29C73C4F20003FA7992
:402CC0001A7007F10C07BD4680BC704780B584B002AFF871B971BA807B804CF21E13C1F6FF734FF008021A704CF21E13C1F6FF731978FA79BB794FF0000000904FF000001E
:402D00000190084611461A464FF0080300F04AFC4CF21E13C1F6FF731978BA887B88084611461A4600F0A4FB4CF21E13C1F6FF731B7818464FF0000100F062FB4CF21E13F6
:402D4000C1F6FF731B78184607F10807BD4680BD80B582B000AF786000F042F8786800F00BF84FF0040000F01BF800F02DF807F10807BD4680BD00BF80B485B000AF7860B6
:402D80004EF60853CEF200031B68FB60FB6803F158037A681A6007F11407BD4680BC704780B483B000AF0346FB714EF20643CEF20003FA794FEA4212D2B21A7007F10C078C
:402DC000BD4680BC704700BF80B400AF4EF20013CEF200034FF040021A60BD4680BC704780B400AF4EF28013CEF200034FF040021A60BD4680BC704780B584B000AF02466A
:402E00000B46FA807B7100F0F5F803467B7300F0E5F80346FB81FA88FB899A4200F0DA8044F2A233C4F200031B78DBB203F002033B737B7B002B31D1FB89002B02D0FB8858
:402E4000002B2BD1FB89002B13D144F28403C4F20003FA881A8044F28603C4F2000344F28602C4F200021278D2B202F0BF021A70B0E044F28603C4F2000344F28602C4F251
:402E800000021278D2B242F04002D2B21A7044F28403C4F20003FA881A809BE03B7B002B5AD044F20103C4F200034FF000021A7044F21003C4F200034FF002021A7044F2A5
:402EC0001403C4F200034FF000021A7044F20803C4F2000344F20802C4F200021278D2B202F07F021A7044F28603C4F200031B78DBB203F00803002B02D0FB88002B2BD1FD
:402F000044F20203C4F20003FA891A8044F20103C4F200034FF007021A7044F20103C4F200031B78DBB203F00103DBB2002BF4D144F2A233C4F2000344F2A232C4F20002AE
:402F40001278D2B202F0FD021A7044F20103C4F200034FF000021A7044F2A233C4F200031B78DBB203F00203002B1ED044F20203C4F20003FA881A8044F20103C4F2000312
:402F80007A79002A02D04FF0030201E04FF001021A7044F20103C4F200031B78DBB203F00103DBB2002BF4D114E044F28403C4F20003FA881A8044F2A233C4F2000344F22A
:402FC000A232C4F200021278D1B23A7B41EA0202D2B21A7007F11007BD4680BD80B400AF44F28403C4F200031B889BB21846BD4680BC704780B400AF44F28603C4F20003FF
:403000001B78DBB203F007031846BD4680BC704780B584B000AF02460B46FA807B7100F0F5F803467B7300F0E5F80346FB81FA88FB899A4200F0DA8044F2A233C4F2000372
:403040001B78DBB203F004033B737B7B002B31D1FB89002B02D0FB88002B2BD1FB89002B13D144F28803C4F20003FA881A8044F28A03C4F2000344F28A02C4F20002127891
:40308000D2B202F0BF021A70B0E044F28A03C4F2000344F28A02C4F200021278D2B242F04002D2B21A7044F28803C4F20003FA881A809BE03B7B002B5AD044F20103C4F22D
:4030C00000034FF000021A7044F21003C4F200034FF004021A7044F21403C4F200034FF000021A7044F20803C4F2000344F20802C4F200021278D2B202F07F021A7044F22D
:403100008A03C4F200031B78DBB203F00803002B02D0FB88002B2BD144F20203C4F20003FA891A8044F20103C4F200034FF007021A7044F20103C4F200031B78DBB203F0A8
:403140000103DBB2002BF4D144F2A233C4F2000344F2A232C4F200021278D2B202F0FB021A7044F20103C4F200034FF000021A7044F2A233C4F200031B78DBB203F0040325
:40318000002B1ED044F20203C4F20003FA881A8044F20103C4F200037A79002A02D04FF0030201E04FF001021A7044F20103C4F200031B78DBB203F00103DBB2002BF4D18C
:4031C00014E044F28803C4F20003FA881A8044F2A233C4F2000344F2A232C4F200021278D1B23A7B41EA0202D2B21A7007F11007BD4680BD80B400AF44F28803C4F2000314
:403200001B889BB21846BD4680BC704780B400AF44F28A03C4F200031B78DBB203F007031846BD4680BC70470230800803D000BF01380046FCD17047EFF3108072B67047DA
:4032400080F31088704700BF80B483B000AF4CF29713C1F6FF734FF07F021A704CF29613C1F6FF736FF07F021A704FF07F03FB710FE0FB794FEAC30303F1804303F5F04371
:40328000FA7902F1FF32D2B21A70FB7903F1FF33FB71FB79002BECD1FB794FEAC30303F1804303F5F0434FF000021A7007F10C07BD4680BC704700BF80B485B000AF0246C7
:4032C0000B46FA71BB714FF00103FB60FB79172B22D8FB794FEA031247F21003C4F200031344FA794FEA021147F21002C4F200020A441278D2B202F0DF02B979002902D05C
:403300004FF0210101E04FF0010142EA0102D2B21A704FF00003FB60FB68184607F11407BD4680BC704700BF80B485B000AF0346FB714FF00103FB60FB79172B17D8FB7923
:403340004FEA031247F21003C4F200031344FA794FEA021147F21002C4F200020A441278D2B202F0DE021A704FF00003FB60FB68184607F11407BD4680BC704780B485B059
:4033800000AF0346FB714FF00103FB60FB79172B2ED8FB794FEA031247F21003C4F200031344FA794FEA021147F21002C4F200020A441279D2B242F00402D2B21A71FB7957
:4033C0004FEA031247F21003C4F200031344FA794FEA021147F21002C4F200020A441278D2B242F00102D2B21A704FF00003FB60FB68184607F11407BD4680BC704700BF9C
:4034000080B485B000AF02460B46FA71BB714FF00103FB60FB79172B22D8FB794FEA031247F21003C4F2000313441B78DBB223F00E03FB72FB794FEA031247F21003C4F263
:4034400000031344BA7902F007024FEA4202D1B2FA7A41EA0202D2B21A704FF00003FB60FB68184607F11407BD4680BC704700BF80B485B000AF13460246FA710A46BA803F
:403480007B804FF00103BB60BA8841F6FF739A4202D14FF40053BB807A8841F6FF739A4202D14FF400537B80FB79172B1CD8FB794FEAC30303F1804303F5EC4303F1040367
:4034C000FB60FB68BA881A80FB794FEAC30303F1804303F5EC4303F1040303F102037A881A804FF00003BB60BB68184607F11407BD4680BC704700BF80B485B000AF02464B
:403500000B46FA71BB714FF00103FB60FB79172B0CD8FB794FEA031247F21003C4F200031344BA795A724FF00003FB60FB68184607F11407BD4680BC704700BF80B485B0BF
:4035400000AF02460B46FA71BB714FF00103FB60FB79172B1ED8FB794FEA031247F21003C4F200031344FA794FEA021147F21002C4F200020A441279D2B21146BA79D2B2D7
:4035800002F0070241EA0202D2B2D2B21A714FF00003FB60FB68184607F11407BD4680BC704700BF80B485B000AFF871B9717A713B714FF00103FB60FB79172B3BD8FB790B
:4035C0004FEAC30303F1804303F5EC43BA7902F07F0279794FEAC111C9B242EA0102D2B21A70FB794FEAC30303F1804303F5EC433A7E4FEA0212D1B23A7902F00F0241EAD9
:403600000202D2B25A70FB794FEAC30303F1804303F5EC433A7F02F00F029A70FB794FEAC30303F1804303F5EC434FF00002DA704FF00003FB60FB68184607F11407BD46D1
:4036400080BC704780B582B000AF4FF0FF33FB71FFF7F2FD0346BB714CF29613C1F6FF731B78182B20D94CF29713C1F6FF731B78FB714CF29613C1F6FF731B7803F1FF3352
:40368000DAB24CF29613C1F6FF731A70FB794FEAC30303F1804303F5F0431B78DAB24CF29713C1F6FF731A70BB791846FFF7C8FDFB79184607F10807BD4680BD80B584B006
:4036C00000AF0346FB71FB795BB2002B27DBFFF7B3FD0346FB73FB794FEAC30303F1804303F5F0434CF29712C1F6FF7212781A704CF29713C1F6FF73FA791A704CF29613EE
:40370000C1F6FF731B7803F10103DAB24CF29613C1F6FF731A70FB7B1846FFF791FD07F11007BD4680BD00BF80B485B000AFF871B980FA70BB704FF00103BB60FB795BB21B
:40374000002B24DBBB8803F47043002B1FD1FB794FEAC30303F1804303F5F043FB60FB68BA881A80FB794FEAC30303F1804303F5F043FA789A70FB794FEAC30303F180432D
:4037800003F5F043BA78DA704FF00003BB60BB68184607F11407BD4680BC704780B485B000AF13460246FA710A46BA807B804FF00103BB60FB795BB2002B1CDBFB794FEA24
:4037C000C30303F1804303F5F04303F10403FB60FB68BA881A80FB794FEAC30303F1804303F5F04303F1040303F102037A881A804FF00003BB60BB68184607F11407BD46B3
:4038000080BC704780B584B000AF0346FB714FF00003BB6044F22023C4F2000344F22022C4F200021278D2B242F00102D2B21A70FB79002B4DD044F20033C4F200031B7847
:403840007B7344F28033C4F200031B78BB7344F28233C4F200031B78FB734FF0180001F047FB4FF01003BB6019E044F22523C4F200031B78DBB203F00103DBB2002B0ED07E
:4038800044F22523C4F200031B78DBB203F00103DBB2002B03D04FF00003BB6006E04FF0010001F0E7FA0346012BDED17B7B03F00403002B01D100F02BFC44F28033C4F213
:4038C0000003BA7B1A7044F28233C4F20003FA7B1A70BB68184607F11007BD4680BD00BF80B400AF44F22023C4F2000344F22022C4F200021278D2B202F0FE021A70BD4602
:4039000080BC704780B582B000AF0346FB7144F22023C4F200031B78DBB203F00103002B03D04FF0000000F097FCFB7903F10003022B11D844F20003C4F2000344F2000215
:40394000C4F200021278D2B202F0FC02F97942EA0102D2B21A7003E04FF0000000F07CFC07F10807BD4680BD80B584B000AF0346FB7144F2A033C4F2000344F2A032C4F2C4
:4039800000021278D2B242F01002D2B21A70FB79002B4DD044F20033C4F200031B78FB73FB7B03F00403002B01D100F09DFB44F28233C4F200031B787B7344F28033C4F20D
:4039C00000031B78BB7344F28233C4F2000344F28232C4F200021278D2B202F0FC021A7044F28033C4F200034FF000021A7044F28233C4F200034FF001021A704FF0010018
:403A000001F038FA0346002BF8D0FB7B03F00403002B01D100F07CFB44F28033C4F20003BA7B1A7044F28233C4F200037A7B1A7007F11007BD4680BD80B400AF44F2A03394
:403A4000C4F2000344F2A032C4F200021278D2B202F0EF021A70BD4680BC704780B483B000AF4FF00003FB7144F29333C4F200031B78DBB203F00703002B0AD144F2A533B2
:403A8000C4F200031B78DBB203F00103DBB2002B14D144F29333C4F200031B78DBB203F00703012B0DD144F2B533C4F200031B78DBB203F00103DBB2002B02D04FF0010302
:403AC000FB71FB79184607F10C07BD4680BC704780B584B000AF0346FB71FFF7BFFF0346FB73FB7B012B0CD146F20903C4F2000346F20902C4F200021278D2B202F0FD02D9
:403B00001A70FB79082B7AD801A252F823F000BF353B00004D3B0000653B00007D3B0000953B0000AD3B0000FF3B0000FF3B0000C53B000044F2A163C4F2000340F2081288
:403B4000C4F600121278D2B21A705EE044F2A163C4F2000340F20912C4F600121278D2B21A7052E044F2A163C4F2000340F20A12C4F600121278D2B21A7046E044F2A163C8
:403B8000C4F2000340F20B12C4F600121278D2B21A703AE044F2A163C4F2000340F28912C4F600121278D2B21A702EE044F2A163C4F2000340F20C12C4F600121278D2B230
:403BC0001A7022E044F2A163C4F2000340F20F12C4F600121278D2B21A70FB7B012B13D146F20903C4F2000346F20902C4F200021278D2B242F00202D2B21A7005E04FF09B
:403C0000000000F029FB00E000BF07F11007BD4680BD00BF80B584B000AF0346FB7144F20023C4F200031B78DBB203F00703BB73FB79082B01D0FB7901E04FF00303FB7319
:403C4000BB7B052B26D801A252F823F0653C00006D3C0000753C00007D3C0000853C00008D3C00004FF00203BB7317E04FF00103BB7313E04FF00303BB730FE04FF0000331
:403C8000BB730BE04FF00403BB7307E04FF00503BB7303E04FF0000000F0DEFAFA7BBB7B9A4203D3FB791846FFF712FFFB79082B00F28A8001A252F823F000BFE13C00007C
:403CC000033D0000253D0000413D0000633D0000853D0000C93D0000C93D0000A73D000044F20023C4F2000344F20022C4F200021278D2B202F0B80242F00302D2B21A7031
:403D000066E044F20023C4F2000344F20022C4F200021278D2B202F0B80242F00102D2B21A7055E044F20023C4F2000344F20022C4F200021278D2B202F0B8021A7047E05C
:403D400044F20023C4F2000344F20022C4F200021278D2B202F0B80242F00202D2B21A7036E044F20023C4F2000344F20022C4F200021278D2B202F0B80242F00402D2B275
:403D80001A7025E044F20023C4F2000344F20022C4F200021278D2B202F0B80242F00502D2B21A7014E044F20023C4F2000344F20022C4F200021278D2B202F0B80242F04F
:403DC0004202D2B21A7003E04FF0000000F044FAFB79082B02D100F06BF801E000F07CF8FA7BBB7B9A4203D2FB791846FFF770FE07F11007BD4680BD80B582B000AF0346CF
:403E0000FB71FB79012B20D0022B02D0002B39D046E044F20003C4F2000344F20002C4F200021278D2B202F0BF021A7044F20023C4F2000344F20022C4F200021278D2B2D0
:403E400042F02002D2B21A702EE044F20003C4F2000344F20002C4F200021278D2B242F04002D2B21A7044F20023C4F2000344F20022C4F200021278D2B242F02002D2B258
:403E80001A7011E044F20023C4F2000344F20022C4F200021278D2B202F0DF021A7003E04FF0000000F0D8F907F10807BD4680BD80B400AF44F20023C4F2000344F2002283
:403EC000C4F200021278D2B242F01002D2B21A70BD4680BC704700BF80B400AF44F20023C4F2000344F20022C4F200021278D2B202F0EF021A70BD4680BC704780B483B018
:403F000000AF0346FB7144F20503C4F2000344F20502C4F200021278D2B2114601F0FC01FA7902F0030241EA0202D2B21A7007F10C07BD4680BC704780B483B000AF0346D7
:403F4000FB7144F20403C4F20003FA791A7007F10C07BD4680BC704780B483B000AF0346FB8044F21403C4F2000344F21402C4F200021278D2B202F0F0021A7044F2100338
:403F8000C4F200034FF000021A7044F20803C4F2000344F20802C4F200021278D2B26FEA42626FEA5262D2B21A7044F20203C4F20003FA88D2B21A7044F20303C4F20003EC
:403FC000FA884FEA122292B2D2B21A7044F20103C4F2000344F20102C4F200021278D2B242F00102D2B21A7007F10C07BD4680BC704700BF80B584B000AF0346FB80FFF7B9
:404000001BF90346FB7344F20703C4F200031B78DBB24FEA03239AB244F20603C4F200031B78DBB242EA0303BB81FB88002B02D0BB89002B38D144F20403C4F200031B78EA
:40404000FB72FB7A062B03D84FF00700FFF774FFFB88002B12D144F20803C4F2000344F20802C4F200021278D2B242F04002D2B21A70FB881846FFF76FFF10E0FB8818467A
:40408000FFF76AFF44F20803C4F2000344F20802C4F200021278D2B202F0BF021A70FB7A1846FFF749FF03E0FB881846FFF754FFFB7B1846FFF7C4F807F11007BD4680BD71
:4040C00080B400AF44F20033C4F2000344F20032C4F200021278D2B242F00202D2B21A70BD4680BC704700BF80B400AF44F20033C4F2000344F20032C4F200021278D2B261
:4041000042F00402D2B21A70BD4680BC704700BF80B400AF44F20033C4F2000344F20032C4F200021278D2B202F0FB021A70BD4680BC704780B586B000AF0346FB714FF0D4
:4041400000033B61FB79FB7344F21023C4F2000344F21022C4F200021278D2B242F00102D2B21A70FB79002B5DD044F20033C4F200031B787B7544F28033C4F200031B7885
:40418000BB7544F28233C4F200031B78FB754FF0180000F0ADFE4FF010033B612CE044F21023C4F200031B784FF00403BB730CE04FF0010000F05EFE0346012BF8D1BB7B27
:4041C000DBB203F1FF33DBB2BB73BB7BDBB2002BEED144F21023C4F200031B78DBB25BB2002B03DB4FF000033B6109E0FB7BDBB203F1FF33DBB2FB73FB7BDBB2002BCED194
:404200007B7D03F00403002B01D1FFF781FF44F28033C4F20003BA7D1A7044F28233C4F20003FA7D1A703B69184607F11807BD4680BD00BF80B400AF44F21023C4F20003F4
:4042400044F21022C4F200021278D2B202F0FE021A70BD4680BC704780B483B000AF0346FB7101BE07F10C07BD4680BC704700BF80B582B000AF78600BE04CF22C13C1F647
:40428000FF731B681846FEF7CFFF7B68A3F500437B607B68B3F5004FEFD84CF22413C1F6FF731B687A6802FB03F31846FEF7BCFF07F10807BD4680BD80B582B000AF034604
:4042C000FB80FA884CF22813C1F6FF731B7803FB02F31846FEF7A8FF07F10807BD4680BD80B483B000AF78607B68002B06D04CF22013C1F6FF737A681A6008E04CF2201337
:40430000C1F6FF734AF24052C0F2AE221A604CF22013C1F6FF731A6844F23F23C0F20F0313444DF68362C4F21B32A2FB03134FEA9343DAB24CF22813C1F6FF731A704CF2D8
:404340002013C1F6FF731B6803F5787202F1070244F6D353C1F26203A3FB02134FEA93124CF22413C1F6FF731A604CF22413C1F6FF731B684FEAC3324CF22C13C1F6FF736A
:404380001A6007F10C07BD4680BC704780B483B000AF02460B46FA71BB7144F28333C4F2000344F28332C4F200021278D2B2114601F0FC01FA7902F0030241EA0202D2B284
:4043C0001A7044F28333C4F2000344F28332C4F200021278D2B26FEA42626FEA5262D2B21A7044F28333C4F2000344F28332C4F200021278D2B202F07F021A7044F2833386
:40440000C4F20003BA794FEA4212D2B2114601F0600144F28332C4F200021278D2B202F09F0241EA0202D2B21A7044F28333C4F2000344F28332C4F200021278D2B242F0CD
:404440001002D2B21A7007F10C07BD4680BC704780B400AF44F28433C4F200034FF001021A70BD4680BC704780B584B000AF03463960FB714EF60853CEF200031B68FB602A
:40448000FB791F2B03D94FF00000FFF7E5FEFB7903F01F0303F110034FEA8302FB6813441B68BB60FB7903F01F0303F110034FEA8302FB6813443A681A60BB68184607F107
:4044C0001007BD4680BD00BF80B582B000AF02460B46FA71BB71BB79072B03D94FF00000FFF7BAFEFB791F2B03D94FF00000FFF7B3FEFB7903F01F0303F1604303F56443F2
:40450000BA794FEA4212D2B21A7007F10807BD4680BD00BF80B500AF44F2A133C4F200031B78DBB21A4602F00F024CF2C813C1F6FF731A7044F2A233C4F200031B78DAB2CE
:404540004CF2C813C1F6FF735A7044F2A133C4F2000344F2A132C4F200021278D2B202F0F0021A7044F2A233C4F200031B7844F2A233C4F200034FF000021A7044F600030C
:40458000C4F200031B78DBB21A4602F0C0024CF2C813C1F6FF735A714FF0370005F0DEFE44F20023C4F200031B78DBB21A4602F007024CF2C813C1F6FF73DA7044F2002348
:4045C000C4F200031B78DBB21A4602F040024CF2C813C1F6FF731A7144F20023C4F200031B78DBB203F01003002B07D04CF2C813C1F6FF734FF001025A7206E04CF2C813F8
:40460000C1F6FF734FF000025A724FF00400FFF701FB44F2A033C4F200031B78DBB203F01003002B07D04CF2C813C1F6FF734FF001029A710AE04CF2C813C1F6FF734FF02B
:4046400000029A714FF00000FFF78EF944F20023C4F200031B78DBB203F02003002B18D044F20003C4F200031B78DBB203F04003002B02D14FF0020201E04FF001024CF22C
:40468000C813C1F6FF73DA714FF00000FFF7B4FB06E04CF2C813C1F6FF734FF00002DA7144F20003C4F200031B78DBB21A4602F030024CF2C813C1F6FF731A724CF2C81396
:4046C000C1F6FF731B7A002B0CD044F20003C4F2000344F20002C4F200021278D2B202F0CF021A7044F20023C4F200031B78DBB203F01003002B01D0FFF7EEFB44F2040368
:40470000C4F200031B78DAB24CF2C813C1F6FF739A724CF2C813C1F6FF739B7A002B03D04FF00000FFF708FC44F20503C4F200031B78DBB21A4602F003024CF2C813C1F687
:40474000FF739A704CF2C813C1F6FF739B78002B03D04FF00000FFF7D1FB44F20703C4F200031B78DBB24FEA03239AB244F20603C4F200031B78DBB242EA03039AB24CF2D1
:40478000C813C1F6FF739A814CF2C813C1F6FF739B89002B03D04FF00000FFF72BFC44F20023C4F200031B78DBB203F007024AF6E853C0F200039B5C184605F0CFFD44F270
:4047C0002023C4F200031B78DBB203F00103DBB2002B09D04CF2C813C1F6FF734FF001029A73FFF77DF806E04CF2C813C1F6FF734FF000029A7344F21023C4F200031B78EE
:40480000DBB203F00103DBB2002B09D04CF2C813C1F6FF734FF00102DA73FFF70BFD06E04CF2C813C1F6FF734FF00002DA7344F20B03C4F200031B78DBB203F00403002B9C
:4048400007D04CF2C813C1F6FF734FF001021A7406E04CF2C813C1F6FF734FF000021A7480BD00BF80B584B000AF4FF01003BB604AF6F052C0F200023B4692E8030018602B
:4048800003F10403198003F102034FEA11421A704CF2C813C1F6FF731B7C012B26D144F20023C4F200031B78DBB203F007024AF6E853C0F200039B5C1A4613464FEA83038C
:4048C00013444FEA0312C3EB02031846FEF7ACFC44F20B03C4F2000344F20B02C4F200021278D2B242F00402D2B21A704CF2C813C1F6FF73DB7B012B34D14FF00000FFF71B
:4049000019FC44F21023C4F200031B784FF00503FB8124E044F20023C4F200031B78DBB203F007024AF6E853C0F200039B5C4FF0C80202FB03F31846FEF776FC44F2102367
:40494000C4F200031B78DBB25BB2002B03DB4FF00003BB6006E0FB8903F1FF33FB81FB89002BD7D14FF0370005F0F8FC4CF2C813C1F6FF739B78022B06D04CF2C813C1F601
:40498000FF739B78032B1CD144F20403C4F200031B78DAB24CF2C813C1F6FF739B7A9A4207D04CF2C813C1F6FF739B7A1846FFF7C3FA4CF2C813C1F6FF739B781846FFF727
:4049C0009DFA4CF2C813C1F6FF731B7903F04003002B10D04CF2C813C1F6FF73DB7807F11002134413F8103C032B04D14FF00800FFF710F931E04CF2C813C1F6FF73DB78CD
:404A000007F11002134413F8103C1846FFF702F94CF2C813C1F6FF731B7903F04003002B0ED044F20023C4F2000344F20022C4F200021278D2B242F04002D2B21A700CE0BC
:404A400044F20023C4F2000344F20022C4F200021278D2B202F0BF021A704CF2C813C1F6FF739B79012B0DD144F2A033C4F200031B78DBB203F01003002B03D14FF0000043
:404A8000FEF772FF4CF2C813C1F6FF739B79002B0BD144F2A033C4F200031B78DBB203F01003002B01D0FEF7C7FF4CF2C813C1F6FF73DB791846FFF79FF94CF2C813C1F642
:404AC000FF735B7A012B01D1FFF7F2F94CF2C813C1F6FF731B7A1A4644F20003C4F200031B78DBB203F030039A4219D044F20003C4F2000344F20002C4F200021278D2B26C
:404B0000D2B202F0CF024CF2C811C1F6FF71097A08461146024641EA0202D2B2D2B21A704CF2C813C1F6FF739B7B012B17D14FF00000FEF767FE44F20023C4F200031B7815
:404B4000DBB203F007024AF6E853C0F200039B5C4FF0FA0202FB03F31846FEF765FB4CF2C813C1F6FF739B78002B06D04CF2C813C1F6FF739B78012B1CD144F20403C4F2ED
:404B800000031B78DAB24CF2C813C1F6FF739B7A9A4207D04CF2C813C1F6FF739B7A1846FFF7CAF94CF2C813C1F6FF739B781846FFF7A4F94CF2C813C1F6FF739B891A464F
:404BC00044F20703C4F200031B78DBB24FEA03239BB2194644F20603C4F200031B78DBB241EA03039A4207D04CF2C813C1F6FF739B891846FFF7FEF944F60003C4F20003EE
:404C000044F60002C4F200021278D2B2D2B202F03F024CF2C811C1F6FF71497908461146024641EA0202D2B2D2B21A7044F2A133C4F200034CF2C812C1F6FF7212781A70F6
:404C400044F2A233C4F200034CF2C812C1F6FF7252781A7007F11007BD4680BD80B584B000AF02460B46FA71BB80FEF7E5FA0346FB7344F29333C4F200031B78DBB203F0E3
:404C80000803002B10D144F28363C4F2000344F28362C4F200021278D2B202F01F021A70FB79002B05D108E0FB7B1846FEF7C8FADBE04FF00000FFF7CFFA00F087F944F243
:404CC0009833C4F200031B78DAB24CF29813C1F6FF731A7144F29833C4F20003BA884FEA121292B2D2B21A7044F29933C4F200031B78DAB24CF29813C1F6FF735A7144F2DC
:404D00009933C4F20003BA88D2B202F00F021A7044F29A33C4F200031B78DAB24CF29813C1F6FF739A7144F29A33C4F20003BA884FEA123292B2D2B202F001021A7044F2AB
:404D40000023C4F200031B78DBB203F00703002B08D14CF29813C1F6FF734FF0010283F82D2023E04CF29813C1F6FF734FF0000283F82D2044F20023C4F200031B78DBB2CA
:404D80001A4602F007024CF29813C1F6FF7383F82C2044F20023C4F2000344F20022C4F200021278D2B202F0F8021A7044F29333C4F2000344F29332C4F200021278D2B2A3
:404DC00002F0F80242F00302D2B21A7044F29333C4F200031B7800BF00BF30BF4CF29813C1F6FF7393F82D30012B1AD044F20023C4F2000344F20022C4F200021278D2B28D
:404E0000D2B202F0F8024CF29811C1F6FF7191F82C1008461146024641EA0202D2B2D2B21A7000F0D9F844F29833C4F200034CF29812C1F6FF7212791A7044F29933C4F229
:404E400000034CF29812C1F6FF7252791A7044F29A33C4F200034CF29812C1F6FF7292791A70FB7B1846FEF7EBF907F11007BD4680BD00BF80B584B000AF0346FB71FEF7EC
:404E8000DBF90346BB7344F29033C4F200031B78DAB24CF2DA13C1F6FF731B7842EA0303DAB24CF2DA13C1F6FF731A704CF2DA13C1F6FF731B78FB73FB796FEA0303DAB29F
:404EC0004CF2DA13C1F6FF731B7802EA0303DAB24CF2DA13C1F6FF731A70BB7B1846FEF7AFF9FB7B184607F11007BD4680BD00BF80B582B000AF0346FB7144F28233C4F2F0
:404F0000000344F28232C4F200021278D2B202F0FD021A70FFF7E8F844F28233C4F200031B78DBB203F00103DBB2002B2AD044F28033C4F200031B78DBB2FA799A423FD0E0
:404F400044F28233C4F2000344F28232C4F200021278D2B202F0FE021A7044F28033C4F20003FA791A7044F28233C4F2000344F28232C4F200021278D2B242F00102D2B2B5
:404F80001A701EE044F28033C4F200031B78DBB2FA799A4205D044F28033C4F20003FA791A7044F28233C4F2000344F28232C4F200021278D2B242F00102D2B21A7000E06D
:404FC00000BF07F10807BD4680BD00BF80B500AF00F008F880BD00BF80B500AF00F02CFA80BD00BF80B400AF45F60023C4F200031B78DAB24CF29813C1F6FF735A7245F6F4
:405000000223C4F200031B78DAB24CF29813C1F6FF739A7245F60323C4F200031B78DAB24CF29813C1F6FF73DA7245F60423C4F200031B78DAB24CF29813C1F6FF731A73E5
:4050400045F60623C4F200031B78DAB24CF29813C1F6FF735A7345F60823C4F200031B78DAB24CF29813C1F6FF739A7345F60A23C4F200031B78DAB24CF29813C1F6FF7366
:40508000DA7345F61023C4F200031B78DAB24CF29813C1F6FF731A7445F61223C4F200031B78DAB24CF29813C1F6FF735A7445F61323C4F200031B78DAB24CF29813C1F6AC
:4050C000FF739A7445F61423C4F200031B78DAB24CF29813C1F6FF73DA7445F61623C4F200031B78DAB24CF29813C1F6FF731A7545F61823C4F200031B78DAB24CF2981362
:40510000C1F6FF735A7545F61A23C4F200031B78DAB24CF29813C1F6FF739A7545F62023C4F200031B78DAB24CF29813C1F6FF73DA7545F62223C4F200031B78DAB24CF2B9
:405140009813C1F6FF731A7645F62323C4F200031B78DAB24CF29813C1F6FF735A7645F62423C4F200031B78DAB24CF29813C1F6FF739A7645F62623C4F200031B78DAB2B8
:405180004CF29813C1F6FF73DA7645F62823C4F200031B78DAB24CF29813C1F6FF731A7745F62A23C4F200031B78DAB24CF29813C1F6FF735A7745F63023C4F200031B786F
:4051C000DAB24CF29813C1F6FF739A7745F63223C4F200031B78DAB24CF29813C1F6FF73DA7745F63323C4F200031B78DAB24CF29813C1F6FF7383F8202045F63423C4F2B7
:4052000000031B78DAB24CF29813C1F6FF7383F8212045F63623C4F200031B78DAB24CF29813C1F6FF7383F8222045F63823C4F200031B78DAB24CF29813C1F6FF7383F848
:40524000232045F63A23C4F200031B78DAB24CF29813C1F6FF7383F8242045F60023C4F200034FF000021A7045F60223C4F200034FF000021A7045F60323C4F200034FF08B
:4052800000021A7045F60423C4F200034FF000021A7045F60623C4F200034FF000021A7045F60823C4F200034FF000021A7045F60A23C4F200034FF000021A7045F6102350
:4052C000C4F200034FF000021A7045F61223C4F200034FF000021A7045F61323C4F200034FF000021A7045F61423C4F200034FF000021A7045F61623C4F200034FF00002DD
:405300001A7045F61823C4F200034FF000021A7045F61A23C4F200034FF000021A7045F62023C4F200034FF000021A7045F62223C4F200034FF000021A7045F62323C4F2B0
:4053400000034FF000021A7045F62423C4F200034FF000021A7045F62623C4F200034FF000021A7045F62823C4F200034FF000021A7045F62A23C4F200034FF000021A703B
:4053800045F63023C4F200034FF000021A7045F63223C4F200034FF000021A7045F63323C4F200034FF000021A7045F63423C4F200034FF000021A7045F63623C4F200034F
:4053C0004FF000021A7045F63823C4F200034FF000021A7045F63A23C4F200034FF000021A7044F22233C4F200031B78DBB203F00803002B15D04CF29813C1F6FF734FF0E9
:40540000010283F82E2044F22233C4F2000344F22232C4F200021278D2B202F0F7021A7007E04CF29813C1F6FF734FF0000283F82E20BD4680BC704780B400AF45F600235D
:40544000C4F200034CF29812C1F6FF72527A1A7045F60223C4F200034CF29812C1F6FF72927A1A7045F60323C4F200034CF29812C1F6FF72D27A1A7045F60423C4F2000333
:405480004CF29812C1F6FF72127B1A7045F60623C4F200034CF29812C1F6FF72527B1A7045F60823C4F200034CF29812C1F6FF72927B1A7045F60A23C4F200034CF2981272
:4054C000C1F6FF72D27B1A7045F61023C4F200034CF29812C1F6FF72127C1A7045F61223C4F200034CF29812C1F6FF72527C1A7045F61323C4F200034CF29812C1F6FF7293
:40550000927C1A7045F61423C4F200034CF29812C1F6FF72D27C1A7045F61623C4F200034CF29812C1F6FF72127D1A7045F61823C4F200034CF29812C1F6FF72527D1A70D2
:4055400045F61A23C4F200034CF29812C1F6FF72927D1A7045F62023C4F200034CF29812C1F6FF72D27D1A7045F62223C4F200034CF29812C1F6FF72127E1A7045F623234D
:40558000C4F200034CF29812C1F6FF72527E1A7045F62423C4F200034CF29812C1F6FF72927E1A7045F62623C4F200034CF29812C1F6FF72D27E1A7045F62823C4F200037D
:4055C0004CF29812C1F6FF72127F1A7045F62A23C4F200034CF29812C1F6FF72527F1A7045F63023C4F200034CF29812C1F6FF72927F1A7045F63223C4F200034CF29812B1
:40560000C1F6FF72D27F1A7045F63323C4F200034CF29812C1F6FF7292F820201A7045F63423C4F200034CF29812C1F6FF7292F821201A7045F63623C4F200034CF29812D4
:40564000C1F6FF7292F822201A7045F63823C4F200034CF29812C1F6FF7292F823201A7045F63A23C4F200034CF29812C1F6FF7292F824201A704CF29813C1F6FF7393F8A0
:405680002E30012B0DD144F22233C4F2000344F22232C4F200021278D2B242F00802D2B21A70BD4680BC704780B485B000AF0346FB7145F23013C4F200031B78DBB223F07B
:4056C0000203FB7345F23013C4F20003FA794FEA4202D2B202F00202F97B42EA0102D2B21A7007F11407BD4680BC704780B400AF45F23113C4F200031B78DBB203F00203B1
:405700004FEA5303DBB21846BD4680BC704700BF80B582B000AF02460B46FA71BB714CF2DC13C1F6FF731B78002B08D100F012F84CF2DC13C1F6FF734FF001021A70FA7978
:40574000BB791046194600F04BF907F10807BD4680BD00BF80B582B000AFFDF76DFD03467B7144F2A533C4F2000344F2A532C4F200021278D2B242F00102D2B21A7044F24A
:40578000B533C4F2000344F2B532C4F200021278D2B242F00102D2B21A7046F29D03C4F200034FF001021A7046F20903C4F200034FF002021A7046F21003C4F2000346F2BF
:4057C0001002C4F200021278D2B202F07F021A704FF00000FEF770FD44F29433C4F2000344F29432C4F200021278D2B202F0F9021A7046F21203C4F2000346F21202C4F23C
:4058000000021278D2B202F0DF021A7044F29433C4F2000344F29432C4F200021278D2B242F00102D2B21A704FF00100FEF744FD4FF02800FEF740FD45F2F813C4F2000336
:4058400045F2F812C4F200021278D2B202F07F021A7045F2F813C4F2000345F2F812C4F200021278D2B202F0BF021A7044F29433C4F2000344F29432C4F200021278D2B26D
:4058800042F00202D2B21A704FF00200FEF714FD44F29433C4F2000344F29432C4F200021278D2B242F00402D2B21A7046F28403C4F200034FF000021A7046F28503C4F2E6
:4058C00000034FF000021A704FF00003FB800BE0FA884CF68433C1F6FF734FF0FF319954FB8803F10103FB80FB88082BF0D97B791846FDF7A5FC4FF0170047F22D11C0F257
:405900000001FEF7B1FD4FF017004FF00701FEF7DBFD4FF0150047F22111C0F20001FEF7A3FD4FF015004FF00701FEF7CDFD4FF0180046F20171C0F20001FEF795FD4FF07E
:4059400018004FF00701FEF7BFFD4FF0000046F65171C0F20001FEF787FD4FF000004FF00701FEF7B1FD4FF0010046F6C171C0F20001FEF779FD4FF001004FF00701FEF73D
:40598000A3FD4FF0020047F23101C0F20001FEF76BFD4FF002004FF00701FEF795FD4FF0030047F2A901C0F20001FEF75DFD4FF003004FF00701FEF787FD4FF0160047F2C5
:4059C0003911C0F20001FEF74FFD4FF016004FF00001FEF779FD07F10807BD4680BD00BF80B584B000AF02460B46FA71BB714FF00003FB730BE0FA7B4CF66443C1F6FF73F9
:405A00004FF001019954FB7B03F10103FB73FB7B032BF0D94EF20013CEF200034FF400021A604EF20013CEF200034FF080721A604EF20013CEF200034FF001021A604EF247
:405A40000013CEF200034FF002021A604EF20013CEF200034FF004021A604EF20013CEF200034FF008021A6046F29E03C4F200034FF02B021A704EF20013CEF200034FF404
:405A800080021A6046F29C03C4F200034FF050021A704CF6DE33C1F6FF734FF000021A70BB79002B02D0012B08D00FE046F20903C4F200034FF002021A700EE046F20903D8
:405AC000C4F200034FF003021A7006E046F20903C4F200034FF002021A704CF6D833C1F6FF73FA791A704CF6DD33C1F6FF734FF000021A704CF6D933C1F6FF734FF00002FE
:405B00001A704CF6DC33C1F6FF734FF000021A704CF6C433C1F6FF734FF000021A704CF6DB33C1F6FF734FF000021A704CF65843C1F6FF734FF000021A7046F22803C4F23B
:405B400000034FF003021A7046F20803C4F200036FF07F021A704FF00100FDF765FB46F21203C4F200034FF004021A7007F11007BD4680BD80B483B000AF4FF00003FB7172
:405B80000BE0FA794CF66443C1F6FF734FF001019954FB7903F10103FB71FB79032BF0D94CF6DE33C1F6FF734FF000021A704CF6DD33C1F6FF734FF000021A704CF6D93329
:405BC000C1F6FF734FF000021A704CF6DC33C1F6FF734FF000021A704CF6C433C1F6FF734FF000021A704CF6DB33C1F6FF734FF000021A704CF65843C1F6FF734FF00002B4
:405C00001A7046F22803C4F200034FF003021A7046F20803C4F200036FF07F021A7007F10C07BD4680BC704780B483B000AF46F20903C4F200031B78FB7146F20903C4F27D
:405C40000003FA7902F0FB021A70FB7903F004034FEA9303DBB2184607F10C07BD4680BC704700BF80B400AF4CF6DD33C1F6FF731B78DBB21846BD4680BC704780B483B014
:405C800000AF4FF00003FB714CF6DC33C1F6FF731B78DBB2002B0CD04CF6DC33C1F6FF731B78FB714CF6DC33C1F6FF734FF000021A70FB79184607F10C07BD4680BC704755
:405CC00080B483B000AF0346FB71FA794CF6C833C1F6FF739B5CDBB2184607F10C07BD4680BC704780B483B000AF0346FB71F9794CF6E832C1F6FF720B464FEA43030B443D
:405D00004FEA830313445B78DBB2184607F10C07BD4680BC704700BF80B485B000AF0346FB714FF00003FB81FB79002B24D0FB79082B21D8FB7903F1FF33DBB24FEA03139B
:405D40007B737A7B46F20C03C4F2000313441B78DBB203F007034FEA03239AB2797B46F20D03C4F200030B441B78DBB242EA03039BB2A3F10203FB81FB89184607F1140734
:405D8000BD4680BC704700BF90B585B000AF03463960FB71F9794CF6E832C1F6FF720B464FEA43030B444FEA830313441B79DBB25BB2002B07DA3B684FEA1343BB814FF4A1
:405DC0008043FB8106E04FF48043BB813B684FEA1343FB81FB7903F1FF33052B51D801A252F823F0FD5D00001F5E0000835E0000415E0000835E0000635E0000FC79BA89EA
:405E0000FB894FF020004FF0010103F005F803461A464CF67833C1F6FF731A5531E0FC79BA89FB894FF020004FF0010103F036F803461A464CF67833C1F6FF731A5520E0E4
:405E4000FC79BA89FB894FF020004FF0010103F067F803461A464CF67833C1F6FF731A550FE0FC79BA89FB894FF020004FF0010103F098F803461A464CF67833C1F6FF73B9
:405E80001A55FB79002B0CD0FB79082B09D8FC79FDF7D8FB03461A464CF68433C1F6FF731A5507F11407BD4690BD00BF80B584B000AF0346FB71FB79082B01D8FB7901E036
:405EC0004FF00103FB73FA7B4CF68433C1F6FF739B5CFF2B19D0FA7B4CF67833C1F6FF739B5C1846FDF720FAFA7B4CF68433C1F6FF739B5C1846FDF7E1FBFA7B4CF6843338
:405F0000C1F6FF734FF0FF319954FB7B03F10103FB73FB7B082B02D8FB79092BD3D007F11007BD4680BD00BF80B586B000AFB96013460246FA73FB80FB7B002B00F0D48083
:405F4000FB7B082B00F2D080FB7B03F1FF33DBB24FEA0313FB74FA7C46F28803C4F2000313447B61FA7C46F20C03C4F200031344FA884FEA122292B25FFA82FCF87B4CF69E
:405F8000E831C1F6FF7102464FEA420202444FEA82020A44D278D2B24CEA0202D2B21A70FA7C46F20D03C4F200031344FA88D2B21A70FA7B4CF68433C1F6FF739B5CFF2B5F
:405FC00004D1FB7B1846B968FFF7DEFEBB68002B50D0FA7B4CF67833C1F6FF739B5C1846FDF7A2F9FA7B4CF68433C1F6FF73995CFA7B4CF68433C1F6FF739B5CFA8808463E
:4060000011461A464FF01103FDF78EFBFA7B4CF68433C1F6FF73995CBB689AB27B699BB2084611461A46FDF7B9FBFA7B4CF67833C1F6FF739B5C1846FDF7A0F9FA7B4CF6DC
:406040007833C1F6FF739A5CF97B4CF68433C1F6FF735B5C10461946FDF74EFAFA7B4CF67833C1F6FF739B5C18464FF00101FDF723F939E0F97B4CF6E832C1F6FF720B4685
:406080004FEA43030B444FEA830313444FF000025A70FB88002B12D0FA7C46F28003C4F200031344F97C46F28002C4F200020A441278D2B242F00102D2B21A7014E0FA7C30
:4060C00046F20E03C4F200031344F87B4CF6E831C1F6FF7102464FEA420202444FEA82020A445279D2B21A7007F11807BD4680BD80B586B000AFB96013460246FA73FB8050
:40610000FB7B002B71D0FB7B082B6ED8BB68002B6BD0FB7B03F1FF33DBB24FEA0313FB74FA7C46F28803C4F2000313447B61FA7B4CF68433C1F6FF739B5CFF2B04D1FB7BF6
:406140001846B968FFF720FEFA7B4CF67833C1F6FF739B5C1846FDF7E7F8FA7B4CF68433C1F6FF73995CFA7B4CF68433C1F6FF739B5CFA88084611461A464FF01203FDF7F0
:40618000D3FAFA7B4CF68433C1F6FF73995C7B699AB2BB689BB2084611461A46FDF7FEFAFA7B4CF67833C1F6FF739B5C1846FDF7E5F8FA7B4CF67833C1F6FF739A5CF97B4F
:4061C0004CF68433C1F6FF735B5C10461946FDF793F9FA7B4CF67833C1F6FF739B5C18464FF00101FDF768F802E04FF00003FB80FB88184607F11807BD4680BD80B485B0DC
:4062000000AF0346FB71FB79002B2DD0FB79082B2AD8FB7903F1FF33DBB24FEA0313FB73F9794CF6E832C1F6FF720B464FEA43030B444FEA830313444FF000025A70FA7B26
:4062400046F20E03C4F200031344F8794CF6E831C1F6FF7102464FEA420202444FEA82020A445279D2B21A7007F11407BD4680BC704700BF80B582B000AF4FF00003BB7197
:4062800046F20403C4F200031B78DBB203F07F03FB7146F20003C4F200031B78DBB25BB2002B80F2338146F20003C4F200031B78DBB203F00303022B2CD146F20103C4F24A
:4062C00000031B78DBB2812B40F0028246F20303C4F200031B78DBB2012B40F0FB814CF6CC33C1F6FF734FF003021A804CF6A433C1F6FF73F9790A464FEA42020A441A44B7
:406300004CF6CC33C1F6FF735A6000F0EFFB0346BB71EEE146F20003C4F200031B78DBB203F00303012B40F0D78146F20103C4F200031B78DBB2832B00F0A080832B04DCF9
:40634000812B09D0822B7BD0D3E1842B00F0B480FF2B00F0CF80CCE146F20303C4F200031B78DBB2012B14D14CF6CC33C1F6FF734FF001021A804CF6CC33C1F6FF734CF6E9
:40638000C232C1F6FF725A6000F0B0FB0346BB71AFE146F20303C4F200031B78DBB2022B40F09C814CF6CC33C1F6FF734FF002021A8046F20503C4F200031B78DBB2022B49
:4063C0002ED0062B37D14CF6CC33C1F6FF734CF6A032C1F6FF725A6046F20203C4F200031B78DBB2012B09D14CF6CC33C1F6FF734CF69832C1F6FF725A601CE046F2020359
:40640000C4F200031B78DBB2022B13D14CF6CC33C1F6FF734CF6C032C1F6FF725A600AE04CF6CC33C1F6FF734CF69C32C1F6FF725A6000E000BF00F059FB0346BB7158E11B
:4064400046F20303C4F200031B78DBB2022B40F047814CF6CC33C1F6FF734FF002021A804CF6CC33C1F6FF734CF23012C1F6FF725A6000F03BFB0346BB713AE146F20303D9
:40648000C4F200031B78DBB2022B40F02B814CF6CC33C1F6FF734FF002021A804CF6CC33C1F6FF734CF23412C1F6FF725A6000F01DFB0346BB711CE146F20303C4F2000372
:4064C0001B78DBB2022B40F00F814CF6CC33C1F6FF734FF002021A804CF6CC33C1F6FF734CF23812C1F6FF725A6000F0FFFA0346BB71FEE04CF6CC33C1F6FF734FF000028D
:406500001A8000F099FB0346BB71F2E046F20003C4F200031B78DBB25BB2002BC0F2E98046F20003C4F200031B78DBB203F00303022B32D146F20103C4F200031B78DBB23D
:40654000012B40F0D38046F20303C4F200031B78DBB2012B40F0CC804CF6CC33C1F6FF734FF003021A804CF6A433C1F6FF73F9790A464FEA42020A441A444CF6CC33C1F640
:40658000FF735A6000F058FB0346BB714CF6BF33C1F6FF73FA791A70ABE046F20003C4F200031B78DBB203F00303012B40F0A18046F20103C4F200031B78DBB2012B40F017
:4065C000988046F20303C4F200031B78DBB2012B29D14CF6CC33C1F6FF734FF001021A8046F20503C4F200031B78DBB2022B02D0062B0AD012E04CF6CC33C1F6FF734CF63F
:40660000C232C1F6FF725A6008E04CF6CC33C1F6FF734CF69232C1F6FF725A6000F00CFB0346BB7165E046F20303C4F200031B78DBB2022B5DD14CF6CC33C1F6FF734FF07E
:4066400002021A8046F20503C4F200031B78DBB2022B02D0062B0AD035E04CF6CC33C1F6FF734CF69C32C1F6FF725A602BE04CF6CC33C1F6FF734CF6A032C1F6FF725A607D
:4066800046F20203C4F200031B78DBB2012B09D14CF6CC33C1F6FF734CF69832C1F6FF725A6010E046F20203C4F200031B78DBB2022B08D14CF6CC33C1F6FF734CF6C032BC
:4066C000C1F6FF725A6000F0B7FA0346BB7110E000BF0EE000BF0CE000BF0AE000BF08E000BF06E000BF04E000BF02E000BF00E000BFBB79184607F10807BD4680BD00BF2B
:4067000080B582B000AF46F22803C4F200031B78BB71BB7903F01003002B00F08E804FF00103FB71BB795BB2002B17DABB7903F00F03012B03D04FF00003FB7123E000F020
:4067400081F84CF6C533C1F6FF731B78DBB25BB2002B17DA4FF00003FB7114E0BB7903F04003002B02D000F0BFF80CE0BB7903F02003002B02D000F0DDF804E04FF0000326
:40678000FB7100E000BFFB79002B56D046F22803C4F200031B78BB71BB795BB2002B4CDB4CF6DA33C1F6FF731B78DAB24CF65943C1F6FF731B78DBB242EA0303BB7146F247
:4067C0002903C4F20003BA791A7046F22903C4F200031B78DBB2BA799A422ED14CF6C533C1F6FF731B78FB7146F22803C4F200031B78DBB223F07F03BB71BB79002B13D10A
:4068000046F22803C4F200034CF6C532C1F6FF721278D2B21A7046F22803C4F200031B78DBB203F00F03FB714CF6C533C1F6FF731B78DBB2FA799A42D0D107F10807BD4619
:4068400080BD00BF80B582B000AF46F22803C4F200031B78FB7146F22803C4F20003FA791A7046F22803C4F200031B78FB71FB795BB2002B06DA4CF6C533C1F6FF73FA7955
:406880001A702DE04FF0020000F012FB46F20003C4F200031B78DBB203F06003202B08D0402B0BD0002B0ED101F0F6F80346FB710CE003F0B5FD0346FB7107E002F090FAE9
:4068C0000346FB7102E04FF00003FB71FB79002B06D14CF6C533C1F6FF734FF003021A7007F10807BD4680BD80B500AF4CF6DE33C1F6FF731B78DBB2062B19D801A252F8D6
:4069000023F000BF3169000031690000216900003169000027690000316900002D69000000F05AF904E000F055FA01E000F08CFA80BD00BF80B500AF4CF6DE33C1F6FF7354
:406940001B78DBB2062B22D801A252F823F000BF8F6900008F6900006D6900008F690000736900008F6900007969000000F03AF90DE000F0A5F90AE04FF0030000F098FA4D
:406980004CF6C533C1F6FF734FF003021A7080BD80B400AF4CF65843C1F6FF731B78DBB21A464CF65A43C1F6FF731B889BB213449AB24CF65A43C1F6FF731A804CF65943E5
:4069C000C1F6FF734FF000021A7034E04CF65943C1F6FF731B78DBB203F1804303F5C0434CF6CC32C1F6FF7252681178C9B2197002F101024CF6CC33C1F6FF735A604CF6AB
:406A00005943C1F6FF731B78DBB203F10103DAB24CF65943C1F6FF731A704CF6CC33C1F6FF731B889BB203F1FF339AB24CF6CC33C1F6FF731A804CF6CC33C1F6FF731B887F
:406A40009BB2002B07D04CF65943C1F6FF731B78DBB2072BBAD94CF65943C1F6FF731B78DBB2002B07D14CF65843C1F6FF731B78DBB2082B1ED14CF6DA33C1F6FF731B785E
:406A8000DAB26FF07F0382EA0303DAB24CF6DA33C1F6FF731A704CF6C533C1F6FF734FF00F021A704CF6DE33C1F6FF734FF002021A700DE04CF6C533C1F6FF734FF0020250
:406AC0001A704CF6DE33C1F6FF734FF002021A704CF65943C1F6FF731B78DAB24CF65843C1F6FF731A70BD4680BC704780B582B000AF4CF6CC33C1F6FF731B889BB2002B7C
:406B000002D100F03DF833E04CF6DE33C1F6FF734FF002021A704CF6DA33C1F6FF734FF000021A7000F0F0F946F20703C4F200031B78DBB24FEA03239AB246F20603C4F228
:406B400000031B78DBB242EA03039BB2FB804CF6CC33C1F6FF731B889BB2FA889A4205D24CF6CC33C1F6FF73FA881A80FFF710FF4FF00103184607F10807BD4680BD00BF37
:406B800080B400AF4CF6DE33C1F6FF734FF002021A704CF6DA33C1F6FF736FF07F021A704CF6C533C1F6FF734FF00F021A704CF65843C1F6FF734FF000021A704CF65943DB
:406BC000C1F6FF734FF000021A704FF001031846BD4680BC704700BF80B500AFFFF7D8FE80BD00BF80B500AF4CF65843C1F6FF731B78DBB21A464CF65A43C1F6FF731B888A
:406C00009BB213449AB24CF65A43C1F6FF731A804CF6DE33C1F6FF734FF000021A704FF0010000F045F94CF6C533C1F6FF734FF003021A7080BD00BF80B582B000AF4CF688
:406C4000DE33C1F6FF734FF004021A704CF6DA33C1F6FF736FF07F021A7000F055F946F20703C4F200031B78DBB24FEA03239AB246F20603C4F200031B78DBB242EA0303D9
:406C80009BB2FB804CF6CC33C1F6FF731B889BB2FA889A4205D24CF6CC33C1F6FF73FA881A804CF6C533C1F6FF734FF00B021A704FF00103184607F10807BD4680BD00BF17
:406CC00080B483B000AF46F20003C4F200037B6046F22903C4F200031B78DBB203F00F03A3F10203DAB24CF65943C1F6FF731A704CF65943C1F6FF731B78DBB21A464CF6EE
:406D00005A43C1F6FF731B889BB213449AB24CF65A43C1F6FF731A802FE04CF6CC33C1F6FF735B687A681278D2B21A7003F101024CF6CC33C1F6FF735A607B6803F10103AC
:406D40007B604CF65943C1F6FF731B78DBB203F1FF33DAB24CF65943C1F6FF731A704CF6CC33C1F6FF731B889BB203F1FF339AB24CF6CC33C1F6FF731A804CF6CC33C1F606
:406D8000FF731B889BB2002B07D04CF65943C1F6FF731B78DBB2002BBFD14CF6DA33C1F6FF731B78DAB26FF07F0382EA0303DAB24CF6DA33C1F6FF731A704CF6C533C1F624
:406DC000FF734FF00B021A7007F10C07BD4680BC704700BF80B500AF4CF6DE33C1F6FF734FF000021A704FF0010000F061F84CF6C533C1F6FF734FF003021A7080BD00BFAA
:406E000080B400AF4CF6DE33C1F6FF734FF006021A704CF6C533C1F6FF734FF006021A704CF6DA33C1F6FF736FF07F021A704CF65943C1F6FF734FF000021A704FF00103F7
:406E40001846BD4680BC704780B500AF4CF6C433C1F6FF731B78DBB2002B16D046F20803C4F200034CF6C432C1F6FF721278D2B26FEA42626FEA5262D2B21A704CF6C4338C
:406E8000C1F6FF734FF000021A704CF6DE33C1F6FF734FF000021A704FF0010000F008F84CF6C533C1F6FF734FF003021A7080BD80B483B000AF0346FB714CF6CC33C1F636
:406EC000FF739B68002B19D04CF6CC33C1F6FF739B68FA791A704CF6CC33C1F6FF739A684CF65A43C1F6FF731B889BB253804CF6CC33C1F6FF734FF000029A6007F10C07B8
:406F0000BD4680BC704700BF80B400AF4CF65A43C1F6FF734FF000021A804CF6CC33C1F6FF739B68002B0FD04CF6CC33C1F6FF739B684FF000021A704CF6CC33C1F6FF73BD
:406F40009B684FF000025A80BD4680BC704700BF80B500AFF9F76AFD46F20E03C4F200031B784CF6E833C1F6FF731B7BDBB203F00303012B0FD04CF6E833C1F6FF73DB7BE5
:406F8000DAB26FF07F0382EA0303DAB24CF6E833C1F6FF73DA734CF6E833C1F6FF734FF001025A7346F20B03C4F2000346F20B02C4F200021278D2B202F0FE021A7080BD3B
:406FC00080B500AFF9F7DEFE46F21E03C4F200031B784CF6E833C1F6FF731B7EDBB203F00303012B0FD04CF6E833C1F6FF73DB7EDAB26FF07F0382EA0303DAB24CF6E833E5
:40700000C1F6FF73DA764CF6E833C1F6FF734FF001025A7646F20B03C4F2000346F20B02C4F200021278D2B202F0FD021A7080BD80B400AF46F23E03C4F200031B784CF693
:40704000E833C1F6FF7393F83030DBB203F00303012B11D04CF6E833C1F6FF7393F83330DAB26FF07F0382EA0303DAB24CF6E833C1F6FF7383F833204CF6E833C1F6FF7395
:407080004FF0010283F8312046F20B03C4F2000346F20B02C4F200021278D2B202F0F7021A70BD4680BC704780B400AF46F25E03C4F200031B784CF6E833C1F6FF7393F874
:4070C0004830DBB203F00303012B11D04CF6E833C1F6FF7393F84B30DAB26FF07F0382EA0303DAB24CF6E833C1F6FF7383F84B204CF6E833C1F6FF734FF0010283F8492076
:4071000046F20B03C4F2000346F20B02C4F200021278D2B202F0DF021A70BD4680BC704780B400AFBD4680BC704700BF80B500AFFEF720FD80BD00BF80B483B000AF4FF013
:407140000103BB714FF00003FB7146F29F03C4F200031B783B7146F29F03C4F200033A791A705EE03B7903F00103DBB2002B4CD0FA7946F28203C4F2000313441B787B7113
:407180007B7903F00103DBB2002B36D0B9794CF6E832C1F6FF720B464FEA43030B444FEA830313441B79DBB25BB2002B25DAFA7946F28003C4F200031344F97946F2800279
:4071C000C4F200020A441278D2B202F0FE021A70FA7946F20E03C4F200031344B8794CF6E831C1F6FF7102464FEA420202444FEA82020A445279D2B21A70FA7946F2820361
:40720000C4F2000313447A791A70FB7903F11003FB71BB7903F10103BB713B794FEA53033B713B79002B9DD107F10C07BD4680BC704700BF80B582B000AF4FF00003BB7102
